:020000003D2B96
:1000060083120313D403D4035408003C03181028A6
:10001600D4030000000000000728000000000000D4
:06002600000000000800CC
:10002C0083120313F801F9011030FC00710DF80D67
:10003C00F90D7408F8027508031C750FF902031802
:10004C002E287408F80775080318750FF9070310A4
:0A005C00F00DF10DFC0B1C2808004C
:10006600403083120313F0001F30F100F201F30158
:02007600080080
:1000780083120313FB01FA01F901F801A001730DC2
:10008800F80D7408F8027508031C750FF902760854
:10009800031C760FFA027708031C770FFB02000196
:1000A800031C0130A002F30D0730FC00730DF80D9E
:1000B800F90DFA0DFB0DA00D7408731C7528F802D4
:1000C8007508031C750FF9027608031C760FFA02EF
:1000D8007708031C770FFB020001031C0130A00204
:1000E8008628F80775080318750FF90776080318A6
:1000F800760FFA0777080318770FFB070001031834
:100108000130A007F30DFC0B5A28720DF80DF90DFC
:10011800FA0DFB0DA00D7408731CA428F8027508CD
:10012800031C750FF9027608031C760FFA0277088C
:10013800031C770FFB020001031C0130A002B52845
:10014800F80775080318750FF90776080318760F6E
:10015800FA0777080318770FFB0700010318013027
:10016800A007F20D0730FC00720DF80DF90DFA0D1D
:10017800FB0DA00D7408721CD328F8027508031C27
:10018800750FF9027608031C760FFA027708031C2C
:10019800770FFB020001031C0130A002E428F807D6
:1001A80075080318750FF90776080318760FFA070C
:1001B80077080318770FFB07000103180130A00721
:1001C800F20DFC0BB828710DF80DF90DFA0DFB0DA9
:1001D800A00D7408721C0229F8027508031C750F1B
:1001E800F9027608031C760FFA027708031C770FCA
:1001F800FB020001031C0130A0021329F80775084F
:100208000318750FF90776080318760FFA077708A9
:100218000318770FFB07000103180130A007F10D41
:100228000730FC00710DF80DF90DFA0DFB0DA00D4E
:100238007408711C3129F8027508031C750FF9023E
:100248007608031C760FFA027708031C770FFB0267
:100258000001031C0130A0024229F80775080318A1
:10026800750FF90776080318760FFA077708031849
:10027800770FFB07000103180130A007F10DFC0BF5
:100288001629700DF80DF90DFA0DFB0DA00D740867
:10029800711C6029F8027508031C750FF9027608AD
:1002A800031C760FFA027708031C770FFB02000184
:1002B800031C0130A0027129F80775080318750F8F
:1002C800F90776080318760FFA0777080318770FE7
:1002D800FB07000103180130A007F00D0730FC00F0
:1002E800700DF80DF90DFA0DFB0DA00D7408701CBA
:1002F8008F29F8027508031C750FF9027608031C8C
:10030800760FFA027708031C770FFB020001031C23
:100318000130A002A029F80775080318750FF9071E
:1003280076080318760FFA0777080318770FFB0784
:10033800000103180130A007F00DFC0B7429701898
:10034800B3297408F80775080318750FF9077608B4
:100358000318760FFA0777080318770FFB070800CA
:10036800831203132230FC00F801F901FA01FB01A2
:10037800FC030319EA290310FB0CFA0CF90CF80C1E
:10038800F30CF20CF10CF00C031CBC29FC03031950
:10039800DC297408F80775080318750FF90776083B
:1003A8000318760FFA0777080318770FFB07C02999
:1003B8007408F80775080318750FF9077608031805
:0E03C800760FFA0777080318770FFB07080077
:0E03D6008312031342088A00410882000800C7
:1003E400831203137008F100F0010830FC00710857
:1003F400F40C0318012AFC0BFA29F1010034031050
:10040400062AF40C0318F107F10CF00CFC0B032A78
:020414000800DE
:1004160083120313F1014808710203181D2A1A30CA
:10042600FC00F830FD00FD0B162AFC0B162A000016
:06043600F10A0E2A080085
:10043C003320E830F4000330F500F601F701B42165
:10044C007008D0007108D1007208D2007308D30074
:10045C004808F4004908F500F601F7013C20700843
:10046C00D0007108D1007208D2007308D300700854
:10047C00F5007108F6007208F7007308F800F80C24
:10048C00F70CF60CF50CF813F80CF70CF60CF50C45
:10049C00F8137508F0007608F1007708F200780878
:1004AC00F300F30CF20CF10CF00CF3137008CC000D
:1004BC007108CD0033204A08F4004B08F500F60112
:1004CC00F701B4214C08F9004D08FA00FB01FC01BE
:1004DC000330F8007908F4007A08F5007B08F60080
:1004EC007C08F70078080319822AF40DF50DF60D37
:1004FC00F70D7410FF3E792A3C207008D00071086B
:10050C00D1007208D2007308D3000A30F400003016
:10051C00F5004C08F0004D08F10016207008CC00D6
:10052C007108CD0000307102031D9E2A0330700249
:10053C000318A12AEE2A430884005308003C031D2B
:10054C00B12A5208003C031DB12A5108003C031D7E
:10055C00B12A5008003C0318EC2A440880044D08CA
:10056C000319C82ACE01CF0100304F02031DC02A47
:10057C004D084E020318C82AD4010320CE0A0319D1
:10058C00CF0ABA2A4C08D4000320450880054D0830
:10059C000319E02ACE01CF0100304F02031DD82AE7
:1005AC004D084E020318E02AD4010320CE0A031989
:1005BC00CF0AD22A4C08D40003200130D002031CED
:1005CC00D102031CD202031CD302A32A45088005C6
:0205DC00080015
:1005DE00831203134608C3004708F1000130F000F0
:1005EE0071080319FE2AF00D7010FF3EF82A7008EC
:1005FE00C400F0097008C5008030460784007008FA
:0A060E0080058413700880050800C1
:1006180083120313C6011930460203182D2B46080E
:10062800213E84000008C800C9010030C9004608FE
:10063800313E84000008F0003230F400F2217008E6
:10064800CA007108CB001E220630C8000B22C60A59
:0A0658000F2B6430C8000B220800CD
:10066200EB218A110A128000840AC10A0319C20A04
:08067200F003031D312B080009
:10067A00263083120313A1002630A2004A30A300B9
:10068A005D30A4005D30A5005D30A6008830A7006B
:10069A004A30A8004A30A9002630AA000630AB002A
:1006AA000630AC002630AD00DC30AE000630AF00BC
:1006BA002630B0000A30B1000530B2000530B30070
:1006CA000A30B4000A30B5000530B6000530B7006C
:1006DA000A30B8000A30B9000530BA000530BB004C
:1006EA000530BC000F30BD000530BE000530BF002C
:1006FA000A30C000073083169C0088010830831234
:10070A00C600C701EF220C230230FB000430FC00B4
:10071A00BA30FD00FD0B8F2BFC0B8F2BFB0B8F2BA5
:06072A000000882B972B54
:02400E004A2F37
:00000001FF
