:02000000722A62
:0E000600213083120313FD00FD0B07280800B4
:06001400000000000800DE
:10001A000F3083120313FC004730FD00FD0B132839
:0A002A00FC0B132800000000080082
:1000340083120317EC1B20288613212886176C1BB8
:100044002528061326280617EC1A2A2886122B2898
:1000540086166C1A2F280612302806165F183428C4
:1000640006153528061186150A208611EC193C2838
:1000740086133D2886176C19412806134228061753
:10008400EC1846288612472886166C184B28061248
:100094004C2806165F185028061551280611861597
:1000A4000A2086115F1C58280D20592803200800B7
:1000B400831203175F106B08EC001A2003175F14F8
:0200C400080032
:1000C6007528803083120317E7008828C030E700C0
:1000D60088289430E7008828D430E70088288030C4
:1000E600E7008828831203176708013A0319642872
:1000F6006708023A031969286708033A03196C2846
:100106006708043A03196F2872286803F000670825
:10011600F0077008E7007008EC001A2003175F105C
:10012600EA016A086907840000080319A2286A0818
:10013600690784000008EB005A20EA0A94285F1435
:020146000800AF
:1001480083160313861106110612861206138613E8
:1001580083128611061186130613861206120D20C5
:100168000D200D208616061686150A2086110D20EC
:1001780086150A2086110D2086150A2086110D2065
:10018800061286150A2086110D2086150A2086116A
:100198008612861786150A2086110D2086130616E4
:1001A80086150A208611061286150A2086110D204A
:1001B80086150A208611061686150A2086110D2036
:1001C800061286150A208611861706178616061641
:0E01D80086150A2086110D2003175F140800FB
:1001E600013083120317EC001A2001300317E700D1
:1001F6000130E800A030E90063200130E70001305B
:0C020600E8005F30E9006320F3280800E6
:10021200013083120317EC001A2001300317E700A4
:100222000130E8004E30E90063200130E700013080
:0C023200E800B130E90063200929080051
:0E023E00831203175C088A005B088200080028
:10024C00831603131413941307168715383083126F
:04025C009400080002
:10026000A4200130EC001A200C300317EC001A20F7
:1002700001300317E7000130E8003D30E90063205A
:100280000230E7000130E8002C30E9006320DD0196
:10029000DE010313AB01051863290230FB000430B3
:1002A000FC00BA30FD00FD0B5329FC0B5329FB0B5E
:1002B0005329000005186329A00A2008053C0318EB
:1002C00063290130A000200803193B2A85187929E9
:1002D0000230FB000430FC00BA30FD00FD0B6E293B
:1002E000FC0B6E29FB0B6E29000085187929013063
:1002F000AB0005198C290230FB000430FC00BA3039
:10030000FD00FD0B8129FC0B8129FB0B81290000DD
:1003100005198C29FF30AB0020080319B6292B08DA
:100320000319B629A129B629B629B6290130031720
:10033000E4000030E5002530E600F320B62909216D
:10034000B62903132008013A031993292008023A19
:10035000031994292008033A031995292008043A1F
:10036000031996292008053A03199F290317DD0A66
:100370000319DE0A8030F00080305E067002031D33
:10038000C3295D080A3C0318C729DD01DE0180305E
:100390005E06F00080307002031DD02905305D023A
:1003A0000318F6290130E7000C30E8002330E9009B
:1003B00063200130E7000E30E8002130E9006320BF
:1003C0000130E7001030E800E830E9006320023037
:1003D000E7000630E800E330E90063200230E70080
:1003E0000D30E800DE30E90063203B2A03132008CB
:1003F000013A031D042A01300317E7000C30E8001E
:10040000EA30E90063203B2A03132008023A031D67
:10041000122A01300317E7000E30E800EE30E90041
:1004200063203B2A03132008033A031D202A0130CE
:100430000317E7001030E800EC30E90063203B2AA6
:1004400003132008043A031D2E2A02300317E70085
:100450000630E8001030E90063203B2A031320082F
:10046000053A031D3B2A02300317E7000D30E80070
:10047000D930E9006320031385194E2A0230FB00AE
:100480000430FC00BA30FD00FD0B442AFC0B442A6A
:10049000FB0B442A000085194E2A5C2A0230FB001F
:1004A0000430FC00BA30FD00FD0B542AFC0B542A2A
:1004B000FB0B542A0000492901300317EC001A20D5
:0C04C000AB01A0010317DD01DE01080004
:1004CC001F218A110A128000840ADB0A0319DC0A34
:0804DC00F003031D662A08006D
:1004E400AC2314308316031393002621073083169C
:1004F4009C0006309F00FF30850083128501A420F4
:100504000130EC001A200C300317EC001A200130E3
:100514000317E7000130E800CD30E9006320023022
:10052400E7000130E800C230E90063200313AB01A7
:100534008519AC2A0230FB000430FC00BA30FD00FF
:10054400FD0BA22AFC0BA22AFB0BA22A0000851990
:10055400AC2A30210230FB000430FC00BA30FD002C
:10056400FD0BB22AFC0BB22AFB0BB22A0000892A2B
:02057400BA2AA1
:1007580020308400503083120313F000C030031798
:10076800DB000230DC006622A03084004C3003132A
:10077800F00010300317DB000330DC006622103075
:100788008317840005300313F000A2300317DB0041
:100798000330DC0066228313EC308400043003133A
:1007A800F000A7300317DB000330DC0066221530A9
:1007B8008317840046300313F0005C300317DB0016
:0A07C8000330DC00662283130800F2
:02058000003445
:0405820032340034DB
:0405860031340034D8
:0C058A00543469346D3465343A34003464
:0205960000342F
:100598005334653474343A342034543469346D3403
:1005A800653420347C342034443461347434653404
:0205B80000340D
:1005BA004534643469347434203441346C346134DD
:1005CA0072346D343A3431347C3432347C343334DA
:0205DA000034EB
:1005DC004434613474346534203449346E347034AA
:1005EC007534743420344D346F34643465342034B1
:0205FC000034C9
:1005FE0049347434203469347334203477346F348E
:10060E0072346B3469346E346734203420342034C1
:02061E000034A6
:10062000543469346D346534203449346E34703454
:100630007534743420344D346F346434653420346C
:02064000003484
:1006420049347434203469347334203477346F3449
:1006520072346B3469346E3467342034203420347D
:02066200003462
:100664005334653463346F346E34643420344E341C
:0606740065347734003408
:10067A0049346E3469347434693461346C342034E6
:08068A004E346534773400346E
:0A0692005F345F345F345F340034DE
:0A069C0044346134743465340034D2
:0A06A600543469346D3465340034B7
:0406B00033340034AB
:0406B4005F3400347B
:1006B80053346E346F346F347A3465343A345F347B
:1006C8005F347C34543475346E3465343A345F3472
:0206D8000034EC
:1006DA00303430343A34303430343A3430343034DC
:0806EA00203450344D3400347B
:1006F200303430343A34303430343A3430343034C4
:08070200203450344D34003462
:10070A0041346C34613472346D342D3431343A34BA
:10071A004F345F3420347C34543469346D34653456
:02072A00003499
:10072C00303430343A34303430343A343034303489
:08073C00203450344D34003428
:0A0744005F345F345F345F3400342B
:04074E005F340034E0
:040752005F340034DC
:02400E004A2F37
:00000001FF
