:04000000ABEF11F061
:1000080000C015F0F2A487D0F2940B0ED76EDC0E68
:10001800D66E0101A22B3C0EA25D02E3A26BA32BBC
:100028003C0EA35D02E3A62BA36BA6510C0803E2CA
:10003800010EA66FA36BA6510C0A0BE1A351000A8F
:1000480008E1A251000A05E1A453010ED8A4000E4C
:10005800A46F0001F151F2110FE0800E006E800EC6
:10006800F219005C02E1F1515A0803E2F16BF26BFC
:1000780002D0F14BF22B4FD076524DE16E5218E080
:100088000101A6510001821913E1000E006E000E55
:100098007FBEFF0E001803E17F500101A31908E19C
:1000A8000101A4510001851903E1010E766E33D0D8
:1000B8006F5218E00101A6510001831913E1000EE7
:1000C800006E000E80BFFF0E001803E18051010191
:1000D800A31908E10101A4510001861903E1020EE8
:1000E800766E19D0705217E00101A65100018419EB
:1000F80012E1000E006E000E81BFFF0E001803E132
:1001080081510101A31907E10101A45100018719D7
:0C01180002E1030E766E15C000F011002D
:06012400000000001200C3
:10012A000134083609360450085E0550D8A0053C4B
:10013A00095E003601360F0E0C6E01340836093698
:10014A00045000A006D0085E0550D8A0053C095E00
:10015A0005D008260550D8B0053C092600360136D8
:10016A000C2EEBD700B006D0045008260550D8B0A4
:08017A00053C092600001200FB
:0A018200210E0D6E0D2EFED71200A7
:10018C000F0E0C6E470E0D6E0D2EFED70C2EFCD7DF
:06019C000000000012004B
:1001A2000450000A08E10550000A05E1FF0E006E46
:1001B2007F0E016E57D00D6A096A086A015000105D
:1001C200D8B4000C015005180A6E0ABE0D1E0B6A47
:1001D20005AE05D0041E051E042AD8B4052A01AEB8
:1001E20005D0001E011E002AD8B4012A01500510B4
:1001F2000A6E0ABE10D098DF0BB020D00DAE000CF4
:10020200001E011E002AD8B4012A081E091E082A4F
:10021200D8B4092A000C05AE0DD001BE07D001509A
:10022200096E0050086E016A006AE8D7016A006A26
:10023200002A000C011E001E0B2ADDD7082AD8B4A2
:10024200092A0450085CD8A4D9D70550095CD8A45F
:10025200D5D7096A086A002AD8B4012A01AECED7D6
:060262000000FF0C120079
:10026800020142BF02D0819E01D0818E42BD02D0E0
:10027800819C01D0818C42BB02D0819A01D0818AB5
:1002880042B902D0819801D081881CB102D0818402
:1002980001D08194818642DF819642B702D0819E47
:1002A80001D0818E42B502D0819C01D0818C42B3AD
:1002B80002D0819A01D0818A42B102D0819801D0BE
:1002C80081881CB102D0818401D08194818626DF87
:0E02D80081961CA102D056DF01D04FDF12002C
:1002E6000A0E046E000E056E3EC200F03FC201F01B
:1002F60055DF08C000F009C001F00F0E001402011E
:10030600406F01C041F2000E41170A0E046E000E46
:10031600056E3EC200F03FC201F040DF00C03EF273
:1003260001C03FF20A0E046E000E056E37DF08C0EC
:1003360000F009C001F00F0E0014036E01C004F0B6
:10034600000E0416040E026E03C000F004C001F095
:10035600025005E0003600900136FF0FFAD7F00E86
:100366000016000E01160201405100124151011201
:02037600120073
:0E03780002011C913EC242F273DF1C81120092
:0E0386000F0E02013E15006E300E0026120012
:100394003EC200F00032009E0032009E0032009EF9
:0A03A4000032009E300E0026120009
:1003AE0010D0800E0201396F1AD0C00E396F17D0DF
:1003BE00940E396F14D0D40E396F11D0800E396F60
:1003CE000ED002013951010AECE03951020AEDE07A
:1003DE003951030AEDE03951040AEDE0EFD73A0541
:1003EE00006E3951002600C039F200C042F235DFEE
:1003FE001C913D6B3D513B25E96E000E3C21EA6E92
:10040E00EE520BE03D513B25E96E000E3C21EA6EAB
:0E041E00EECF3EF2AADF3D2BEDD71C8112007F
:10042C00800E02013A19006E800E005C02E1000E93
:10043C00395D08E239510008006E3AC201F0000E35
:0E044C00015604D039C200F03AC201F012008D
:10045A00020139513A114BE01EC23EF21FC23FF26D
:10046A003DDF00C03EF291DF00C0A7F11EC23EF29E
:10047A001FC23FF233DF00C03EF280DF00C0A8F1A6
:10048A0020C23EF221C23FF229DF00C03EF27DDFE8
:10049A0000C0AAF120C23EF221C23FF21FDF00C013
:1004AA003EF26CDF00C0ABF124C23EF2000E3F6F99
:1004BA0015DF00C03EF269DF00C0ADF124C23EF292
:1004CA00000E3F6F0BDF00C03EF258DF00C0AEF1F6
:1004DA002251231106E0500E0101B06F4D0EB16F8B
:1004EA0005D00101410EB06F4D0EB16F49D0A6C1C2
:1004FA003EF2000E02013F6FF1DE00C03EF245DF20
:10050A0000C0A7F1A6C13EF2000E3F6FE7DE00C0B1
:10051A003EF234DF00C0A8F1A3C13EF2000E3F6FE5
:10052A00DDDE00C03EF231DF00C0AAF1A3C13EF217
:10053A00000E3F6FD3DE00C03EF220DF00C0ABF1F9
:10054A00A2C13EF2000E3F6FC9DE00C03EF21DDFBF
:10055A0000C0ADF1A2C13EF2000E3F6FBFDE00C087
:10056A003EF20CDF00C0AEF10101A45305E0500ECB
:10057A00B06F4D0EB16F04D0410EB06F4D0EB16F1A
:02058A0012005D
:10058C00010E0201426F6ADE010E396F010E3A6FE5
:10059C0037C23BF238C23CF204DF020E396F010E57
:1005AC003A6F880E3B6F000E3C6FFBDE000E361967
:1005BC0002E1000E35190FE1A2C124F2A3C120F211
:1005CC00000E216FA6C11EF2000E1F6FA4C122F2F5
:1005DC00000E236F2FD0246B010E355D006E000EC4
:1005EC003659016E7F0E0024E96E000E0120EA6E72
:1005FC00EECF20F2000E21BFFF0E216F000E20BFA8
:10060C00FF0E216F820E0024E96E000E0120EA6EAF
:10061C00EECF1EF2000E1F6F000E1F6F850E002412
:10062C00E96E000E0120EA6EEECF22F2000E236F6F
:10063C00000E236F35C239F236C23AF208DF010ED2
:10064C000201396F060E3A6FA70E3B6F010E3C6F1D
:10065C00A8DE1D6B0101A56B0101F56B80B022D0EA
:10066C00020E0B6E040E0C6EBA0E0D6E0D2EFED716
:10067C000C2EFCD70B2EFAD7000080B013D080B014
:10068C0001D0FDD7A52B02013551361105E0010132
:10069C00A551030AD8B4A52B0101A551050802E206
:1006AC00010EA56FA553D8B4C0D0A551040AD8B477
:1006BC00BCD0A551050AD8B4B8D080B211D0020E66
:1006CC000B6E040E0C6EBA0E0D6E0D2EFED70C2E8C
:1006DC00FCD70B2EFAD7000080B202D0010EF56FBA
:1006EC0080B411D0020E0B6E040E0C6EBA0E0D6E91
:1006FC000D2EFED70C2EFCD70B2EFAD7000080B493
:10070C0002D0FF0EF56FA553D8B48FD0F553D8B4E3
:10071C008CD080D0F55102011E25016E000E010116
:10072C00F5BFFF0E02011F21026E01C01EF202C0B6
:10073C001FF2800E006E800E0218005C02E1015068
:10074C000C080CE2010E1E6F000E1F6F22512311BC
:10075C00010ED8A4000E226F000E236F800E1F19FD
:10076C00006E800E005C02E1010E1E5D0CE20C0EB0
:10077C001E6F000E1F6F22512311010ED8A4000E04
:10078C00226F000E236F51D00101F551020120257B
:10079C00016E000E0101F5BFFF0E02012121026E58
:1007AC0001C020F202C021F2800E0218006E800EF1
:1007BC00005C02E13C0E015C02E3206B216B800EBD
:1007CC002119006E800E005C02E1000E205D04E237
:1007DC003B0E206F000E216F28D0020135513611CF
:1007EC0018E1F5C139F2000E0101F5BFFF0E02014F
:1007FC003A6F16DE005001100CE00101A26B010EE5
:10080C000201396F0C0E3A6F240E3B6F000E3C6FD9
:10081C00C8DD0BD00101A551010AD8B47BD7A55175
:10082C00020AB2E0A551030AD8E0010E0201396FA9
:10083C00000E3A6F0CDE02011D2B800E0A0A006EB0
:10084C00800E1D19005CD8A01D6B800E1D19006E4A
:10085C00800E050A005C1CE2010E396F060E3A6F21
:10086C00A70E3B6F010E3C6F9CDD020E396F030E21
:10087C003A6F270E3B6F000E3C6F93DD020E396F03
:10088C000A0E3A6F2C0E3B6F000E3C6F8ADD4AD07D
:10089C000101A551010A0BE1010E0201396F060E8F
:1008AC003A6F210E3B6F000E3C6F7BDD3BD001019C
:1008BC00A551020A0BE1010E0201396F090E3A6FC4
:1008CC00160E3B6F000E3C6F6CDD2CD00101A55158
:1008DC00030A0BE1010E0201396F0C0E3A6F190E6F
:1008EC003B6F000E3C6F5DDD1DD00101A551040A6C
:1008FC000BE1020E0201396F030E3A6F1C0E3B6FB7
:10090C00000E3C6F4EDD0ED00101A551050A0AE127
:10091C00020E0201396F0A0E3A6F330E3B6F000E56
:10092C003C6F3FDD020E0B6E040E0C6EBA0E0D6E9C
:10093C000D2EFED70C2EFCD70B2EFAD7000080B84C
:10094C003ED0020E0B6E040E0C6EBA0E0D6E0D2EFA
:10095C00FED70C2EFCD70B2EFAD7000080B82FD068
:10096C000101A551040A26E102013551361105E1B8
:10097C0020C2A3F11EC2A6F13BD0010E355D006E64
:10098C00000E3659016E820E0024E16E000E01201D
:10099C00E26E1EC2E6FF010E355D006E000E36598A
:1009AC00016E7F0E0024E16E000E0120E26E20C26B
:1009BC00E6FF1ED00101A551050A01E119D080B650
:1009CC0013D0020E0B6E040E0C6EBA0E0D6E0D2EA5
:1009DC00FED70C2EFCD70B2EFAD7000080B604D015
:1009EC0080B001D0FDD704D0765201E001D034D6CE
:1009FC00010E0201426F32DC0101F56BA56B0201A5
:0A0A0C001E6B1F6B206B216B1200A4
:100A1600086A080E0C6E003408360450085ED8B01A
:0E0A260002D00826D89000360C2EF5D712000C
:100A34001BD0060E7724E16E000E7820E26E310E94
:100A4400E66E25D0060E7724E16E000E7820E26E65
:100A5400320EE66E1CD0060E7724E16E000E78206E
:100A6400E26E330EE66E13D0000E0201361902E177
:100A7400010E3519DEE0000E361902E1020E3519B9
:100A8400E1E0000E361902E1030E3519E4E002013B
:100A9400010E355D006E000E3659016E6E0E002497
:100AA400E96E000E0120EA6EEECF00F0005211E074
:100AB400090E7724E16E000E7820E26E4E0EE66E8B
:100AC4000A0E7724E16E000E7820E26E200EE66EA8
:100AD40010D0090E7724E16E000E7820E26E460EE7
:100AE400E66E0A0E7724E16E000E7820E26E460E62
:100AF400E66E0F0E7924376F000E7A20386F010EE0
:100B0400355D006E000E3659016E620E0024E96EEA
:100B1400000E0120EA6EEECF3EF2000E3FBFFF0E44
:100B24003F6F000E3EBFFF0E3F6F73EC01F000C03D
:100B34003EF227DC37C2E1FF38C2E2FF00C0E6FF25
:100B4400070E7924376F000E7A20386F010E355D59
:100B5400006E000E3659016E650E0024E96E000E1B
:100B64000120EA6EEECF3EF2000E3FBFFF0E3F6F54
:100B7400000E3EBFFF0E3F6F73EC01F000C03EF26B
:100B840007DC37C2E1FF38C2E2FF00C0E6FF080E0F
:100B94007924376F000E7A20386F010E355D006EB0
:100BA400000E3659016E650E0024E96E000E012018
:100BB400EA6EEECF3EF2000E3FBFFF0E3F6F000E17
:100BC4003EBFFF0E3F6F73EC01F000C03EF2C3EC7A
:100BD40001F037C2E1FF38C2E2FF00C0E6FF010EB8
:100BE400396F010E3A6F77C03BF278C03CF2D7EC14
:100BF40001F0020E396F010E3A6F79C03BF27AC0F0
:080C04003CF2D7EC01F01200F4
:100C0C0041C03EF2000E02013F6F73EC01F000C0D8
:100C1C003EF2CAEC01F000C048F041C03EF2000EBA
:100C2C003F6F73EC01F000C03EF2C3EC01F000C06A
:100C3C0049F03AC03EF2000E3F6F73EC01F000C079
:100C4C003EF2CAEC01F000C04BF03AC03EF2000E8E
:100C5C003F6F73EC01F000C03EF2C3EC01F000C03A
:100C6C004CF03BC03EF2000E3F6F73EC01F000C045
:100C7C003EF2CAEC01F000C04EF03BC03EF2000E5A
:100C8C003F6F73EC01F000C03EF2C3EC01F000C00A
:040C9C004FF0120003
:100CA000400E006E1F0E016E000E026E036E1200EB
:100CB0000B6A0A6A096A086A0E6A03340836045025
:100CC000085E0550D8A0053C095E0650D8A0063C39
:100CD0000A5E0750D8A0073C0B5EE86AD8A0010E58
:100CE0000E5E0336070E0C6E0334083609360A36DC
:100CF0000B360E36045003A012D0085E0550D8A063
:100D0000053C095E0650D8A0063C0A5E0750D8A0F4
:100D1000073C0B5EE86AD8A0010E0E5E11D00826D3
:100D20000550D8B0053C09260650D8B0063C0A2626
:100D30000750D8B0073C0B26E86AD8B0010E0E2643
:100D400003360C2ED1D70234083609360A360B3654
:100D50000E36045003A012D0085E0550D8A0053C02
:100D6000095E0650D8A0063C0A5E0750D8A0073C92
:100D70000B5EE86AD8A0010E0E5E11D00826055061
:100D8000D8B0053C09260650D8B0063C0A260750C4
:100D9000D8B0073C0B26E86AD8B0010E0E26023602
:100DA000070E0C6E0234083609360A360B360E363C
:100DB000045002A012D0085E0550D8A0053C095E80
:100DC0000650D8A0063C0A5E0750D8A0073C0B5E30
:100DD000E86AD8A0010E0E5E11D008260550D8B0E2
:100DE000053C09260650D8B0063C0A260750D8B064
:100DF000073C0B26E86AD8B0010E0E2602360C2EF0
:100E0000D1D70134083609360A360B360E3604506F
:100E100002A012D0085E0550D8A0053C095E06501D
:100E2000D8A0063C0A5E0750D8A0073C0B5EE86AD3
:100E3000D8A0010E0E5E11D008260550D8B0053C92
:100E400009260650D8B0063C0A260750D8B0073C01
:100E50000B26E86AD8B0010E0E260136070E0C6E7E
:100E60000134083609360A360B360E36045001A016
:100E700012D0085E0550D8A0053C095E0650D8A0E7
:100E8000063C0A5E0750D8A0073C0B5EE86AD8A073
:100E9000010E0E5E11D008260550D8B0053C09267B
:100EA0000650D8B0063C0A260750D8B0073C0B269F
:100EB000E86AD8B0010E0E2601360C2ED1D70034C8
:100EC000083609360A360B360E36045001A012D009
:100ED000085E0550D8A0053C095E0650D8A0063C27
:100EE0000A5E0750D8A0073C0B5EE86AD8A0010E46
:100EF0000E5E11D008260550D8B0053C09260650D4
:100F0000D8B0063C0A260750D8B0073C0B26E86A42
:100F1000D8B0010E0E260036070E0C6E00340836CF
:100F200009360A360B360E36045000A012D0085E81
:100F30000550D8A0053C095E0650D8A0063C0A5EC4
:100F40000750D8A0073C0B5EE86AD8A0010E0E5EE1
:100F500011D008260550D8B0053C09260650D8B057
:100F6000063C0A260750D8B0073C0B26E86AD8B0E2
:100F7000010E0E2600360C2ED1D700B00ED0045034
:100F800008260550D8B0053C09260650D8B0063CC6
:0C0F90000A260750D8B0073C0B261200C0
:100F9C00086A096A100E0C6E0134083609360450C2
:100FAC00085E0550D8A0053C095ED8B007D00450A7
:100FBC0008260550D8B0053C0926D89000360136D5
:060FCC000C2EEAD7120012
:100FD200220E0C6E086A096A0A6A0B6A0C06D8B4F9
:100FE2001FD0D8900B320A32093208320332023251
:100FF20001320032D8A0F2D70C06D8B409D004507E
:1010020008260550092206500A2207500B22EAD769
:10101200045008260550092206500A2207500B22C6
:021022001200BA
:1010240002013507350735C201F0350701500008C4
:1010340003E200000000F7D70000000000000000F9
:041044000000120096
:101048002BDEE80E046E030E056E000E066E076EAC
:10105800BCDF00C031F201C032F202C033F203C07B
:1010680034F229C204F02AC205F0000E066E076E9B
:101078001BDE00C031F201C032F202C033F203C0FD
:1010880034F200C005F001C006F002C007F003C04A
:1010980008F00832073206320532089E0832073255
:1010A80006320532089E05C000F006C001F007C0F0
:1010B80002F008C003F00332023201320032039E0C
:1010C80000C02DF201C02EF2E7DD2BC204F02CC2C5
:1010D80005F0000E066E076E78DF2DC209F02EC2ED
:1010E8000AF0000E0B6E0C6E030E086E09C004F0B9
:1010F8000AC005F00BC006F00CC007F0085007E066
:1011080004360490053606360736FF0FF8D7CCDDCF
:1011180000C031F201C032F202C033F203C034F22F
:101128000A0E046E000E056E2DC200F02EC201F0EC
:1011380031DF00C02DF201C02EF2000E015C02E189
:10114800030E005C01E242D018C2E9FF19C2EAFFAF
:1011580002013451000808E13351000805E1325119
:10116800000802E1315100082FE21A51EF122E5304
:101178000DE02F6B306B000E305D02E12E512F5DBC
:1011880005E2356B4BDF2F4B302BF5D72DC235F2EF
:1011980045DF1B51EF162E530DE02F6B306B000E01
:1011A800305D02E12E512F5D05E2356B37DF2F4BA5
:1011B800302BF5D72DC235F231DF010E315F000E2D
:0E11C800325B335B345BC4D71B51EF16120051
:1011D600010E0201426F34EC01F0010E396F010E6F
:1011E6003A6F420E3B6F000E3C6FD7EC01F0010EDA
:1011F600396F060E3A6F480E3B6F000E3C6FD7EC08
:1012060001F0020E396F010E3A6F510E3B6F000E60
:101216003C6FD7EC01F01D6B0101A56B0101F56B6D
:1012260080B018D0020E0B6E040E0C6EBA0E0D6E48
:101236000D2EFED70C2EFCD70B2EFAD7000080B051
:1012460009D080B001D0FDD7A52BA551050802E233
:10125600010EA56FA553D8B4F3D0A551040AD8B48E
:10126600EFD0A551050AD8B4EBD080B211D0020E4A
:101276000B6E040E0C6EBA0E0D6E0D2EFED70C2ED6
:10128600FCD70B2EFAD7000080B202D0010EF56F04
:1012960080B411D0020E0B6E040E0C6EBA0E0D6EDB
:1012A6000D2EFED70C2EFCD70B2EFAD7000080B4DD
:1012B60002D0FF0EF56FA553D8B4C2D0F553D8B4FB
:1012C600BFD0B3D0F55141263A50010A13E03A5047
:1012D600030A10E03A50050A0DE03A50070A0AE000
:1012E6003A50080A07E03A500A0A04E03A500C0A53
:1012F60001E00AD041501F0802E2010E416E010EC4
:10130600415C02E21F0E416E3A50040A0AE03A506E
:10131600060A07E03A50090A04E03A500B0A01E0CF
:101326000AD041501E0802E2010E416E010E415CD8
:1013360002E21E0E416E3A50020A50E1640E046E3D
:101346003BC000F00BEC05F008C000F00050000AAE
:101356002AE1900E046E010E056E3BC000F0000EF1
:10136600016ED1EC00F008C000F009C001F0000EDB
:10137600011802E1000E00180BE141501D0802E2BF
:10138600010E416E010E415C02E21D0E416E0AD055
:1013960041501C0802E2010E416E010E415C02E260
:1013A6001C0E416E1BD0030E3B14016E0150000A49
:1013B6000BE141501D0802E2010E416E010E415C37
:1013C60002E21D0E416E0AD041501C0802E2010ED7
:1013D600416E010E415C02E21C0E416E31D00101EC
:1013E600F5513A24016E01C03AF001500C0802E2B0
:1013F600010E3A6E3A50000802E30C0E3A6E20D007
:101406000101F5513B24016E01C03BF07F0E006ED9
:10141600800E005C02E10150FF0802E3630E3B6EA2
:10142600640E3B5CD8B03B6A0BD00101A551030AA0
:10143600D8B448D7A551020AD2E0A551010AE0E086
:1014460006EC06F01D2B800E0A0A006E800E1D1992
:10145600005CD8A01D6B800E1D19006E800E050A5B
:10146600005C1FE2010E396F060E3A6F41C03BF277
:10147600000E3C6FD7EC01F0020E396F030E3A6F87
:101486003C0E3B6F000E3C6FD7EC01F0020E396F3D
:101496000A0E3A6FA30E3B6F000E3C6FD7EC01F0BD
:1014A6004FD00101A551010A0CE1010E0201396F6D
:1014B6000C0E3A6F0E0E3B6F010E3C6FD7EC01F02F
:1014C6003FD00101A551020A0CE1010E0201396F5C
:1014D600090E3A6F110E3B6F010E3C6FD7EC01F00F
:1014E6002FD00101A551030A0CE1010E0201396F4B
:1014F600060E3A6F140E3B6F010E3C6FD7EC01F0EF
:101506001FD00101A551040A0CE1020E0201396F38
:10151600030E3A6F090E3B6F010E3C6FD7EC01F0DC
:101526000FD00101A551050A0BE1020E0201396F28
:101536000A0E3A6FF60E3B6F000E3C6FD7EC01F0C9
:10154600020E0B6E040E0C6EBA0E0D6E0D2EFED72D
:101556000C2EFCD70B2EFAD7000080B814D0020E42
:101566000B6E040E0C6EBA0E0D6E0D2EFED70C2EE3
:10157600FCD70B2EFAD7000080B805D00101A55183
:10158600040A00E119D080B613D0020E0B6E040EC9
:101596000C6EBA0E0D6E0D2EFED70C2EFCD70B2E32
:1015A600FAD7000080B604D080B001D0FDD704D0B1
:1015B600765201E001D032D6010E0201426F34ECC0
:0A15C60001F00101F56BA56B1200A6
:1015D000939693949398939A939C939E81968194D7
:1015E000819E819C819A8198C6EC00F0C6EC00F047
:1015F000C6EC00F0818A8188818692EC00F08196A9
:10160000C6EC00F0818692EC00F08196C6EC00F00A
:10161000818692EC00F08196C6EC00F0819881867C
:1016200092EC00F08196C6EC00F0818692EC00F01E
:101630008196819A818E818692EC00F08196C6EC2B
:1016400000F0819E8188818692EC00F081968198DD
:10165000818692EC00F08196C6EC00F0818692ECD7
:1016600000F081968188818692EC00F08196C6EC2C
:1016700000F08198818692EC00F08196818E818CB9
:10168000818A8188818692EC00F08196C6EC00F018
:0616900002011C811200A2
:10169600010E0201426F34EC01F029C235F22AC272
:1016A60036F21AEC05F01D6B0101A56B0101F56B15
:1016B60080B018D0020E0B6E040E0C6EBA0E0D6EB4
:1016C6000D2EFED70C2EFCD70B2EFAD7000080B0BD
:1016D60009D080B001D0FDD7A52BA551040802E2A0
:1016E600010EA56FA553D8B492D180B211D0020EC7
:1016F6000B6E040E0C6EBA0E0D6E0D2EFED70C2E52
:10170600FCD70B2EFAD7000080B202D0010EF56F7F
:1017160080B411D0020E0B6E040E0C6EBA0E0D6E56
:101726000D2EFED70C2EFCD70B2EFAD7000080B458
:1017360002D0FF0EF56F80B817D0A551020A14E14A
:10174600020E0B6E040E0C6EBA0E0D6E0D2EFED72B
:101756000C2EFCD70B2EFAD7000080B805D080B827
:1017660001D0FDD7010EF56FA553D8B4EBD0F553D4
:10177600D8B4E8D0D2D0010E0201295D006E000E69
:101786002A59016E6E0E0024026E000E0120036EB1
:1017960002C0E9FF03C0EAFFEECF01F00152010EDD
:1017A600D8A4000E006E02C0E1FF03C0E2FF00C035
:1017B600E6FFC2D00201010E295D006E000E2A5915
:1017C600016E650E0024026E000E0120036E02C03B
:1017D600E9FF03C0EAFF0101F551EE24006E02C0E5
:1017E600E1FF03C0E2FF00C0E6FF010E0201295D32
:1017F600006E000E2A59016E650E0024E96E000E79
:101806000120EA6E800E130A006E800EEE18005C50
:101816000DE2010E295D006E000E2A59016E650E5D
:101826000024E16E000E0120E26EE66A010E295DDB
:10183600006E000E2A59016E650E0024E96E000E38
:101846000120EA6E800EEE18006E800E000A005C23
:101856000EE2010E295D006E000E2A59016E650E1C
:101866000024E16E000E0120E26E130EE66E64D0D7
:1018760029C23EF22AC23FF273EC01F000C03EF2EA
:10188600C3EC01F000C06BF0020E356F000E366F30
:10189600680E376F000E386FC6EC02F04DD00201AD
:1018A600010E295D006E000E2A59016E620E00249B
:1018B600026E000E0120036E02C0E9FF03C0EAFFBC
:1018C6000101F551EE24006E02C0E1FF03C0E2FF04
:1018D60000C0E6FF010E0201295D006E000E2A59C6
:1018E600016E620E0024E96E000E0120EA6E800E83
:1018F600030A006E800EEE18005C0EE2010E295DF2
:10190600006E000E2A59016E620E0024E16E000E72
:101916000120E26E010EE66E0FD00101A551010A0B
:10192600D8B429D7A551030AD8B444D7A551020A79
:101936009FE0A551040AB3E029C235F22AC236F265
:101946001AEC05F002011D2B800E0A0A006E800EAD
:101956001D19005CD8A01D6B800E1D19006E800E2F
:10196600050A005C15E2010E396F010E3A6F77C069
:101976003BF278C03CF2D7EC01F0020E396F010E53
:101986003A6F79C03BF27AC03CF2D7EC01F03FD017
:101996000101A551010A0CE1010E0201396F090E80
:1019A6003A6F7B0E3B6F000E3C6FD7EC01F02FD0E9
:1019B6000101A551020A0CE1010E0201396F0D0E5B
:1019C6003A6F990E3B6F000E3C6FD7EC01F01FD0BB
:1019D6000101A551030A0CE1020E0201396F080E3E
:1019E6003A6F9E0E3B6F000E3C6FD7EC01F00FD0A6
:1019F6000101A551040A0BE1020E0201396F100E16
:101A06003A6FA10E3B6F000E3C6FD7EC01F080B62B
:101A160013D0020E0B6E040E0C6EBA0E0D6E0D2E4A
:101A2600FED70C2EFCD70B2EFAD7000080B604D0BA
:101A360080B601D0FDD711D0765201E00ED0020E4D
:101A46000B6E040E0C6EBA0E0D6E0D2EFED70C2EFE
:101A5600FCD70B2EFAD7000029D60201010E426FE1
:101A660034EC01F00101F56BA56B02011D6B060E4E
:101A76007724E16E000E7820E26E060EE66E120006
:101A86000B6A0A6A096A00500402F4CF09F0F3CF20
:101A960008F001500502F4CF0BF0F3CF0AF0005026
:101AA6000502F3500926F4500A22E86A0B22015077
:101AB6000402F3500926F4500A22E86A0B2208C0F1
:101AC60000F009C001F00AC002F00BC003F01200DA
:101AD600949894968B988B9694889486C79EC79C68
:061AE600380EC66E12006E
:101AEC000900F5CFE6FF0006FBE10106F9E1120063
:101AFC0025C218F226C219F227C201F0010E006E9F
:101B0C00015004E000360090FF0FFBD700C01AF222
:101B1C00001E00C01BF2120E02012525E96E000EFC
:101B2C002621EA6E0050EF16120EE95E0050EF16F9
:021B3C00120095
:101B3E0048DD010E426F34EC01F00C0E426F34ECB6
:101B4E0001F01D6B0101A56B02011D2B800E0A0A0F
:101B5E00006E800E1D19005CD8A01D6B800E1D1925
:101B6E00006E800E050A005C04E30101A55301E03E
:101B7E0015D0010E0201396F010E3A6FE40E3B6F64
:101B8E00010E3C6FD7EC01F0020E396F010E3A6F69
:101B9E00D30E3B6F010E3C6FD7EC01F00101F56BDC
:101BAE0080B019D0020E0B6E040E0C6EBA0E0D6EB6
:101BBE000D2EFED70C2EFCD70B2EFAD7000080B0C0
:101BCE000AD080B001D0FDD70101A52BA551050883
:101BDE0002E2010EA56FA553D8B4A3D080B814D0DD
:101BEE00020E0B6E040E0C6EBA0E0D6E0D2EFED77F
:101BFE000C2EFCD70B2EFAD7000080B805D080B87B
:101C0E0001D0FDD7010EF56FA55334E0F55332E048
:101C1E0022D0010E0201296F000E2A6F35DD2AD067
:101C2E000201020E296F000E2A6F2EDD23D0020153
:101C3E00030E296F000E2A6F27DD1CD00201356BB3
:101C4E00366BB30E376F010E386FC6EC02F012D042
:101C5E00EBEC08F00FD0A551010ADBE0A551020A0A
:101C6E00DFE0A551030AE3E0A551040AE7E0A55120
:101C7E00050AEEE0800E02011D19006E800E050AA7
:101C8E00005C4FE30101A551010A0CE1010E0201B6
:101C9E00396F0C0E3A6FBC0E3B6F010E3C6FD7ECDA
:101CAE0001F03FD00101A551020A0CE1010E020123
:101CBE00396F0E0E3A6FC00E3B6F010E3C6FD7ECB4
:101CCE0001F02FD00101A551030A0CE1010E020112
:101CDE00396F100E3A6FBE0E3B6F010E3C6FD7EC94
:101CEE0001F01FD00101A551040A0CE1020E020100
:101CFE00396F060E3A6F9D0E3B6F010E3C6FD7EC9F
:101D0E0001F00FD00101A551050A0BE1020E0201EF
:101D1E00396F0D0E3A6F710E3B6F000E3C6FD7ECA4
:101D2E0001F080B610D0020E0B6E040E0C6EBA0EC1
:101D3E000D6E0D2EFED70C2EFCD70B2EFAD70000F3
:101D4E0080B601D011D0020E0B6E040E0C6EBA0EC0
:101D5E000D6E0D2EFED70C2EFCD70B2EFAD70000D3
:101D6E00765201E001D0F0D60201010E426F34EC42
:0E1D7E0001F00101F56BA56B02011D6B120057
:101D8C00060E010117250201256F000E0101182115
:101D9C000201266F76C03EF2000E76BEFF0E3F6F3C
:101DAC0073EC01F000C03EF2C3EC01F025C2E1FF80
:101DBC0026C2E2FF00C0E6FF020E396F010E3A6F39
:101DCC0017C13BF218C13CF2D7EC01F01D6B7650F9
:101DDC00010A5CE11DC200F0000E1DBFFF0E016E7A
:101DEC00003600900136680E0024E96E010E0120C9
:101DFC00EA6EEECF29F2EECF2AF2860ED96E010EE4
:101E0C00DA6E1D51D926000E1DBFFF0EDA22DECF71
:101E1C0000F0640E0002F3CF2BF2F4CF2CF224EC82
:101E2C0008F0800E02011D19006E800E080A005C7D
:101E3C000BE2020E396F0A0E3A6F950E3B6F010ED4
:101E4C003C6FD7EC01F021D0800E1D19006E800E76
:101E5C00100A005C0BE2020E396F0A0E3A6F600E2C
:101E6C003B6F010E3C6FD7EC01F00FD01D6B0B0ECE
:101E7C000B6E260E0C6E5D0E0D6E0D2EFED70C2EFF
:101E8C00FCD70B2EFAD700000000BFD07650020A08
:101E9C005CE11DC200F0000E1DBFFF0E016E00368E
:101EAC0000900136190E0024E96E010E0120EA6E35
:101EBC00EECF29F2EECF2AF2430ED96E010EDA6E76
:101ECC001D51D926000E1DBFFF0EDA22DECF00F009
:101EDC00640E0002F3CF2BF2F4CF2CF224EC08F0BA
:101EEC00800E02011D19006E800E010A005C0BE2CF
:101EFC00020E396F0A0E3A6F580E3B6F010E3C6F93
:101F0C00D7EC01F021D0800E1D19006E800E020A54
:101F1C00005C0BE2020E396F0A0E3A6FCD0E3B6F6E
:101F2C00000E3C6FD7EC01F00FD01D6B0B0E0B6E3F
:101F3C00260E0C6E5D0E0D6E0D2EFED70C2EFCD7E4
:101F4C000B2EFAD70000000060D07650030A5CE13B
:101F5C001DC200F0000E1DBFFF0E016E003600907A
:101F6C000136D50E0024E96E000E0120EA6EEECF8C
:101F7C0029F2EECF2AF2E50ED96E000EDA6E1D5163
:101F8C00D926000E1DBFFF0EDA22DECF00F0640E44
:101F9C000002F3CF2BF2F4CF2CF224EC08F0800EDD
:101FAC0002011D19006E800E010A005C0BE2020E8C
:101FBC00396F0A0E3A6FC50E3B6F000E3C6FD7ECB3
:101FCC0001F021D0800E1D19006E800E020A005CFB
:101FDC000BE2020E396F0A0E3A6FAA0E3B6F000E1F
:101FEC003C6FD7EC01F00FD01D6B0B0E0B6E260E59
:101FFC000C6E5D0E0D6E0D2EFED70C2EFCD70B2E1F
:10200C00FAD70000000001D09FD180B26CD1020E33
:10201C000B6E040E0C6EBA0E0D6E0D2EFED70C2E22
:10202C00FCD70B2EFAD7000080B25DD1020E396FAF
:10203C00010E3A6FB20E3B6F000E3C6FD7EC01F005
:10204C007604006E000E76BEFF0E016E000E015A75
:10205C00650E0024E96E000E0120EA6EEECF00F052
:10206C00000E00BEFF0E016E580E046E020E056EC1
:10207C0004DD00C0C3F001C0C4F000C0EDF001C02D
:10208C00EEF0800E0001EE19006E800E005C02E195
:10209C00010EED5DD8A015D10A0E046E000E056E72
:1020AC00EDC000F0EEC001F0D1EC00F008C000F083
:1020BC0009C001F000500110D8A4B7D00A0E046E6C
:1020CC00000E056EEDC000F0EEC001F0D1EC00F09A
:1020DC0000C0EDF001C0EEF0EFC025F2F0C026F22A
:1020EC003C0E046E000E056ED1EC00F000C03EF20A
:1020FC0001C03FF273EC01F000C03EF2CAEC01F0FB
:10210C0025C2E1FF26C2E2FF00C0E6FF010E00017E
:10211C00EF250201256F000E0001F0210201266F50
:10212C003C0E046E000E056EEDC000F0EEC001F02A
:10213C00D1EC00F000C03EF201C03FF273EC01F0B4
:10214C0000C03EF2C3EC01F025C2E1FF26C2E2FF63
:10215C0000C0E6FF020E396F0C0E3A6FEFC03BF277
:10216C00F0C03CF2D7EC01F0EFC025F2F0C026F243
:10217C003C0E046E000E056EEDC000F0EEC001F0DA
:10218C00D1EC00F008C000F009C001F000C03EF234
:10219C0001C03FF273EC01F000C03EF2CAEC01F05A
:1021AC0025C2E1FF26C2E2FF00C0E6FF010E0001DE
:1021BC00EF250201256F000E0001F0210201266FB0
:1021CC003C0E046E000E056EEDC000F0EEC001F08A
:1021DC00D1EC00F008C000F009C001F000C03EF2E4
:1021EC0001C03FF273EC01F000C03EF2C3EC01F011
:1021FC0025C2E1FF26C2E2FF00C0E6FF020E396FE6
:10220C000F0E3A6FEFC03BF2F0C03CF2D7EC01F08E
:10221C00EDC000F0EEC001F00A0E046E000E056E6B
:10222C002CDC00C0EDF001C0EEF080B216D0020E36
:10223C000B6E040E0C6EBA0E0D6E0D2EFED70C2E00
:10224C00FCD70B2EFAD7000080B207D0010E00018C
:10225C00C325ED6F000EC421EE6F80B41FD0020EAB
:10226C000B6E040E0C6EBA0E0D6E0D2EFED70C2ED0
:10227C00FCD70B2EFAD7000080B410D00001010E51
:10228C00F16F000EF26F766AED6BEE6BC36BC46B85
:10229C00010E0201426F34EC01F056D0010E000128
:1022AC00ED5F000EEE5B020E0B6E040E0C6EBA0EA2
:1022BC000D6E0D2EFED70C2EFCD70B2EFAD7000070
:1022CC00E0D6F30EEF6F000EF06F020E0201396FC5
:1022DC00010E3A6F17C13BF218C13CF2D7EC01F07A
:1022EC000001ED6BEE6B80B41FD0020E0B6E040E72
:1022FC000C6EBA0E0D6E0D2EFED70C2EFCD70B2EBF
:10230C00FAD7000080B410D00001010EF16F000E5E
:10231C00F26F766AED6BEE6BC36BC46B010E020150
:10232C00426F34EC01F010D002011D2B020E0B6E2B
:10233C00040E0C6EBA0E0D6E0D2EFED70C2EFCD7A5
:0A234C000B2EFAD7000043D5120053
:102356002EEC13F0140EC86E6BEC0DF0070EB46E77
:102366000F0EC16E8A6AFF0E926EFF0E806E946A21
:10237600820E0201256F0F0E266F020E276F7EEC6E
:102386000DF0E8EC0AF0010E426F34EC01F00C0E91
:10239600426F34EC01F0840ED56E0B0ED76EDC0E58
:1023A600D66EF28EF28A0201010E396F010E3A6F75
:1023B600FD0E3B6F000E3C6FD7EC01F0020E396F3D
:1023C600010E3A6F030E3B6F010E3C6FD7EC01F026
:1023D600396B3A6B2DEC02F006EC06F0010E396F04
:1023E600060E3A6FA70E3B6F010E3C6FD7EC01F05D
:1023F600020E396F060E3A6F480E3B6F000E3C6FA9
:10240600D7EC01F00101F56B765202E0BCDC766A8E
:1024160080B611D0820E0C6EDD0E0D6E0D2EFED71F
:102426000C2EFCD70000000080B605D080B601D087
:10243600FDD79FEC0DF0020E0B6E040E0C6EBA0E5D
:102446000D6E0D2EFED70C2EFCD70B2EFAD70000E4
:04245600AAD7FFD72B
:10265C0010EE16F0020E006E030E016E5A0EF66EA0
:0E266C00240EF76E000EF86E76EC0DF01200E4
:020006005F0099
:03245A005F5F00C1
:03245D005F5F00BE
:052460005F5F5F5F00FB
:032465005F5F00B6
:0324680030300011
:05246B005361766500DD
:0724700043616E63656C001F
:072477005F5F5F5F5F5F0024
:01247E00015C
:01247F00104C
:052480005361766500C8
:012485000155
:06248600446174653A0098
:09248C0030302D30302D303000CD
:10249500205B536176655D205B43616E63656C5DB2
:0124A5000036
:0324A6000302012D
:0324A9000F02051A
:0624AC00414C2D313A0005
:0324B20000010125
:0524B5005F5F5F5F00A6
:0124BA000021
:0424BB000702F6011D
:0424BF005F5F5F00FC
:0324C3000A2D0FD0
:0324C600070809FB
:0324C90000000010
:1024CC00205B536176655D205B43616E63656C5D7B
:0124DC0000FF
:0524DD005F5F5F5F007E
:0324E2005F5F0039
:0224E5005F0096
:0724E70043616E63656C00A8
:0824EE0052494E47494E4700D8
:1024F600534E4F4F5A494E47202D2030303A3030F8
:0125060000D4
:022507000000D2
:082509002020202020202000EA
:0825110052494E47494E4700B4
:102519002D084D0A400C5A105A10400C4D0A2D082E
:08252900010203040102030496
:022531000000A8
:02253300B901EC
:022535000000A4
:0325370030300041
:07253A005F5F5F5F5F5F0060
:0625410054696D653A00CB
:06254700446174653A00D6
:05254D005F5F5F5F000D
:032552005F5F00C8
:032555005F5F00C5
:032558005F5F00C2
:02255B00C201BB
:10255D00E006E006E0064D0AB7072D08B707E006CE
:10256D002006B707E006B707E0062006E006B70726
:0A257D002D08B707E006200626052A
:10258700030102020101010202020101010101012D
:05259700020201010336
:08259C00202020202020200057
:0825A40052494E47494E470021
:1025AC0017049704270575052006E006B7072D08C4
:0E25BC00B707E00620067505270597041704EB
:0F25CA00020202020202020202020202020202E4
:0825D90020202020202020001A
:0525E1005F5F5F5F0079
:0125E60024D0
:0125E7002AC9
:0125E80000F2
:0125E90000F1
:0125EA0005EB
:0C25EB0030303A30303A303020504D0093
:0625F70054696D653A0015
:0325FD003030007B
:022600005F0079
:022602005F0077
:022604005F0075
:10260600416C61726D20313A2052494E47494E471E
:0126160000C3
:102617005365743A2054696D65207C204461746564
:0126270000B2
:102628004564697420416C61726D3A317C327C3347
:0126380000A1
:0126390000A0
:10263A00536E6F6F7A653A5F5F7C546F6E653A5F6F
:01264A00008F
:10264B00416C61726D2D313A4F5F207C54696D6521
:01265B00007E
:020000040030CA
:0D000100021F1EFF8381FF0FC00FE00F40A4
:00000001FF
