:04000000EDEF0EF022
:1000080000C015F0F2A475D0F2940B0ED76EDC0E7A
:10001800D66E0001905191110FE0800E006E800E97
:100028009119005C02E190515A0803E2906B916BC0
:1000380002D0904B912B44D0435242E101013D53F1
:1000480014E0000E31BEFF0EA01902E131509F19D5
:100058000CE1A2511A1802E11950A11906E1A351A5
:10006800161803E1010E436E2BD03E5314E0000E28
:1000780032BEFF0EA01902E132509F190CE1A251C5
:100088001C1802E11B50A11906E1A351171803E13E
:10009800020E436E15D03F5313E0000E33BEFF0E21
:1000A800A01902E133509F190BE1A2511E1802E179
:1000B8001D50A11905E1A351181802E1030E436E62
:1000C8000101A44BA52B800E006E800EA519005CC3
:1000D80002E1A4513B080DE2A46BA56BA32B800E93
:1000E8003B0A006E800EA319005C03E2A14BA22B11
:0800F800A36B15C000F011001C
:100100000F0E0C6E470E0D6E0D2EFED70C2EFCD76B
:06011000000000001200D7
:0A011600210E0D6E0D2EFED7120013
:06012000000000001200C7
:100126000134083609360450085E0550D8A0053C4F
:10013600095E003601360F0E0C6E0134083609369C
:10014600045000A006D0085E0550D8A0053C095E04
:1001560005D008260550D8B0053C092600360136DC
:100166000C2EEBD700B006D0045008260550D8B0A8
:08017600053C092600001200FF
:10017E000101C0BF02D0819E01D0818EC0BD02D0D0
:10018E00819C01D0818CC0BB02D0819A01D0818A22
:10019E00C0B902D0819801D08188A6B102D08184E5
:1001AE0001D081948186B5DF8196C0B702D0819E41
:1001BE0001D0818EC0B502D0819C01D0818CC0B39C
:1001CE0002D0819A01D0818AC0B102D0819801D02B
:1001DE008188A6B102D0818401D08194818699DF75
:0E01EE008196A6A102D085DF01D08EDF12001F
:1001FC00C7B409D01F0EC514016E0150000A03E1EB
:0A020C00010E006E01D0006A12001E
:100216009E96BEC1C9FFC7A401D0FDD79EB601D028
:10022600FDD7C5BC02D0006A03D0C584020E006E9D
:020236001200B4
:100238000101BE6BBF6BBF51120802E1BE518E08AF
:1002480008E3D8DF005201E004D00101BE4BBF2B08
:10025800F2D70101120EBF5D02E18F0EBE5D03E30E
:100268007B0E006E05D0C580C5A001D0FDD7006A01
:02027800120072
:04027A00C584120025
:10027E000450000A08E10550000A05E1FF0E006E69
:10028E007F0E016E57D00D6A096A086A0150001080
:10029E00D8B4000C015005180A6E0ABE0D1E0B6A6A
:1002AE0005AE05D0041E051E042AD8B4052A01AEDB
:1002BE0005D0001E011E002AD8B4012A01500510D7
:1002CE000A6E0ABE10D028DF0BB020D00DAE000C87
:1002DE00001E011E002AD8B4012A081E091E082A73
:1002EE00D8B4092A000C05AE0DD001BE07D00150BE
:1002FE00096E0050086E016A006AE8D7016A006A4A
:10030E00002A000C011E001E0B2ADDD7082AD8B4C5
:10031E00092A0450085CD8A4D9D70550095CD8A482
:10032E00D5D7096A086A002AD8B4012A01AECED7F9
:06033E000000FF0C12009C
:0E0344000101A691BEC1C0F118DFA681120012
:10035200BEC100F00032009E0032009E0032009EBC
:0A0362000032009E300E002612004B
:0E036C000F0E0101BE15006E300E00261200AD
:10037A000B6A0A6A096A00500402F4CF09F0F3CF43
:10038A0008F001500502F4CF0BF0F3CF0AF0005049
:10039A000502F3500926F4500A22E86A0B2201509A
:1003AA000402F3500926F4500A22E86A0B2208C014
:1003BA0000F009C001F00AC002F00BC003F01200FD
:1003CA000101B951BA112AE096C1BEF1BDDF00C0E0
:1003DA0034F096C1BEF1C5DF00C035F09EC1BEF152
:1003EA00B3DF00C037F09EC1BEF1BBDF00C038F0FA
:1003FA009CC1BEF1A9DF00C03AF09CC1BEF1B1DFD9
:10040A0000C03BF0935305E0500E3D6E4D0E3E6E1C
:10041A0004D0410E3D6E4D0E3E6E29D098C1BEF1FC
:10042A0093DF00C034F098C1BEF19BDF00C035F005
:10043A00ABC1BEF189DF00C037F0ABC1BEF191DFBD
:10044A0000C038F09DC1BEF17FDF00C03AF09DC107
:10045A00BEF187DF00C03BF0925305E0500E3D6EBF
:10046A004D0E3E6E04D0410E3D6E4D0E3E6E120094
:10047A000F0E0101B915BB6FBAC1BCF1000EBC1752
:10048A00F00EB915036EBAC104F0000E041603C0CB
:10049A00B9F104C0BAF1040E026E03C000F004C040
:1004AA0001F0025007E001320032019E01BC018EC8
:1004BA00FF0FF8D70F0E0016000E01160A0E046E73
:1004CA00000E056E55DFBB510026BC5101221200F9
:1004DA000A0E046E000E056EB9C100F0BAC101F031
:1004EA00C9DE08C000F009C001F00F0E00140101B6
:1004FA00BB6F01C0BCF1000EBC170A0E046E000EE1
:10050A00056EB9C100F0BAC101F0B4DE00C0B9F19C
:10051A0001C0BAF10A0E046E000E056EABDE08C009
:10052A0000F009C001F00F0E0014036E01C004F0C0
:10053A00000E0416040E026E03C000F004C001F09F
:10054A00025005E0003600900136FF0FFAD7F00E90
:10055A000016000E01160101BB510012BC51011216
:02056A0012007D
:10056C0065DED00E0101BE6F50DEB9C1BEF14DDEAD
:0A057C00BAC1BEF14ADE7BDE1200B8
:1005860010D0800E0101B96F1AD0C00EB96F17D006
:10059600940EB96F14D0D40EB96F11D0800EB96F06
:1005A6000ED00101B951010AECE0B951020AEDE0A1
:1005B600B951030AEDE0B951040AEDE0EFD7BA05E7
:1005C600006EB951002600C0B9F100C0C0F1D4DDFB
:1005D600A691BD6BBD51BB25E96E000EBC21EA6E2E
:1005E600EE520BE0BD51BB25E96E000EBC21EA6E52
:0E05F600EECFBEF1A4DEBD2BEDD7A681120024
:10060400800E0101BA19006E800E005C02E1000E3A
:10061400B95D08E2B9510008006EBAC101F0000EDC
:0E062400015604D0B9C100F0BAC101F01200B5
:100632001CD0060E01014025E16E000E4121E26E42
:10064200310EE66E25D0060E4025E16E000E4121E8
:10065200E26E320EE66E1CD0060E4025E16E000EF2
:100662004121E26E330EE66E13D00101000EB41981
:1006720002E1010EB319DDE0000EB41902E1020E2F
:10068200B319E1E0000EB41902E1030EB319E4E07C
:10069200010EB35D006E000EB459016E3D0E0024D2
:1006A200E96E010E0120EA6EEECF00F0005211E079
:1006B200090E4025E16E000E4121E26E4E0EE66EFD
:1006C2000A0E4025E16E000E4121E26E200EE66E1A
:1006D20010D0090E4025E16E000E4121E26E460E59
:1006E200E66E0A0E4025E16E000E4121E26E460ED4
:1006F200E66E0F0E4225B56F000E4321B66F010E56
:10070200B35D006E000EB459016E440E0024E96E12
:10071200010E0120EA6EEECFB9F1000EBABFFF0E54
:10072200BA6F000EB9BFFF0EBA6FD6DE00C0BEF1BF
:100732001CDEB5C1E1FFB6C1E2FF00C0E6FF070E55
:100742004225B56F000E4321B66F010EB35D006EF8
:10075200000EB459016E4D0E0024E96E010E012007
:10076200EA6EEECFB9F1000EBABFFF0EBA6F000EFD
:10077200B9BFFF0EBA6FB0DE00C0BEF1E9DDB5C190
:10078200E1FFB6C1E2FF00C0E6FF080E4225B56FE9
:10079200000E4321B66F010EB35D006E000EB45918
:1007A200016E4D0E0024E96E010E0120EA6EEECFBD
:1007B200B9F1000EBABFFF0EBA6F000EB9BFFF0E3D
:1007C200BA6F8ADE00C0BEF1D0DDB5C1E1FFB6C1AD
:1007D200E2FF00C0E6FF010EB96F010EBA6F40C121
:1007E200BBF141C1BCF1CEDE020EB96F010EBA6F90
:0C07F20042C1BBF143C1BCF1C5DE1200E6
:0A07FE00C582C5A201D0FDD712008C
:100808009E96C5869EB601D0FDD7C9CF01F00101DD
:10081800B351000A02E1C58A01D0C59A9E96C588DF
:0C0828009EB601D0FDD701C000F0120008
:10083400010E0101C06FA1DC010EB96F010EBA6F88
:10084400B5C1BBF1B6C1BCF19CDE020EB96F010E9D
:10085400BA6F600EBB6F000EBC6F93DE000EB4194E
:1008640002E1000EB3190FE19DC19CF1ABC19EF1F1
:1008740094C19AF195C19BF198C196F199C197F1F0
:1008840092C193F14DD0B96BBA6B25DE00C09CF1D7
:10089400010EB35D006E000EB459016E160E0024F5
:1008A400E96E000E0120EA6EEECFB9F1000EBABF78
:1008B400FF0EBA6F000EB9BFFF0EBA6F0CDE00C098
:1008C4009EF1010EB35D036E000EB459046E03C0B5
:1008D40000F004C001F0003600900136190E002427
:1008E400E96E000E0120EA6EEECFB9F1EECFBAF157
:1008F400F2DD00C096F101C097F1010EB35D006E08
:10090400000EB459016E310E0024E96E000E012070
:10091400EA6EEECF93F1B3C1B9F1B4C1BAF153DDCC
:10092400010EB96F060EBA6F340EBB6F000EBC6FAA
:1009340028DEA86B3C6B3B6B80B01CD0020E0B6EA8
:10094400040E0C6EBA0E0D6E0D2EFED70C2EFCD7B7
:100954000B2EFAD7000080B00DD03C2BB351B4114C
:1009640004E03C51030AD8B43C2B3C51050802E294
:10097400010E3C6F3C53D8B4CED080B211D0020EDD
:100984000B6E040E0C6EBA0E0D6E0D2EFED70C2ED1
:10099400FCD70B2EFAD7000080B202D0010E3B6FB9
:1009A40080B411D0020E0B6E040E0C6EBA0E0D6ED6
:1009B4000D2EFED70C2EFCD70B2EFAD7000080B4D8
:1009C40002D0FF0E3B6F3C53D8B4A5D03B53D8B4F0
:1009D400A2D097D09AC1B9F19BC1BAF14CDD00C045
:1009E4009AF101C09BF13B510026000E3BBFFF0E64
:1009F400012200C09AF101C09BF100C0B9F101C00D
:100A0400BAF169DD00C09AF101C09BF11F0E001418
:100A1400026E01C003F0000E0316800E0318006E70
:100A2400800E005C02E1130E025C06E3E10E9A17ED
:100A3400000E9B179A7B15D01F0E9A15016E9BC151
:100A440002F0000E0216800E006E800E0218005C8A
:100A540002E10150000805E3120E9A13000E9B13E5
:100A64009A7B1F0E9A15966F9BC197F1000E9717EC
:100A7400200E9A15936F4FD09EC1B9F1000E9EBF00
:100A8400FF0EBA6FF8DC00C09EF13B510024016EEA
:100A940001C09EF1800E0118006E800E3C0A005CBD
:100AA400D8B09E6B800E9E19006E800E000A005C0A
:100AB40002E23B0E9E6F9EC1B9F1000E9EBFFF0E77
:100AC400BA6F09DD00C09EF126D0B351B41118E10C
:100AD4003BC1B9F1000E3BBFFF0EBA6F91DD005070
:100AE40001100EE0B96BBA6B3FDD01019C6B010E86
:100AF400B96F0C0EBA6F400EBB6F000EBC6F41DDB8
:100B04000AD03C51010AD8B465D73C51020AB4E07A
:100B14003C51030ADAE0010EB96F000EBA6F53DCE0
:100B2400A82B800E0A0A006E800EA819005CD8A0BB
:100B3400A86B800EA819006E800E050A005C1CE2EA
:100B4400010EB96F060EBA6F340EBB6F000EBC6F88
:100B540018DD020EB96F030EBA6F2C0EBB6F000EB8
:100B6400BC6F0FDD020EB96F0A0EBA6F1F0EBB6F9A
:100B7400000EBC6F06DD40D03C51010A0AE1010EB3
:100B8400B96F060EBA6F260EBB6F000EBC6FF9DC90
:100B940033D03C51020A0AE1010EB96F090EBA6F53
:100BA400290EBB6F000EBC6FECDC26D03C51030A4F
:100BB4000AE1010EB96F0C0EBA6F7B0EBB6F000E0B
:100BC400BC6FDFDC19D03C51040A0AE1020EB96F94
:100BD400030EBA6FEB0EBB6F000EBC6FD2DC0CD0F1
:100BE4003C51050A09E1020EB96F0A0EBA6FF00E04
:100BF400BB6F000EBC6FC5DC020E0B6E040E0C6ED8
:100C0400BA0E0D6E0D2EFED70C2EFCD70B2EFAD776
:100C1400000080B67CD0020E0B6E040E0C6EBA0E71
:100C24000D6E0D2EFED70C2EFCD70B2EFAD700001E
:100C340080B66DD03C51040A66E1B351B4110CE1A5
:100C4400020EB96F9AC1BAF18FDC010E0101B96FBE
:100C54009EC1BAF189DC5FD0010E0101B35D036E60
:100C6400000EB459046E03C000F004C001F0003655
:100C740000900136190E0024B76F000E0120B86FE2
:100C840096C1B9F197C1BAF13DEC02F0B7C1E1FFE9
:100C9400B8C1E2FF00C0E6FF01C0E6FF010EB35D8C
:100CA400006E000EB459016E160E0024B76F000ECC
:100CB4000120B86F9EC1B9F1000E9EBFFF0EBA6F3E
:100CC4003DEC02F0B7C1E1FFB8C1E2FF00C0E6FFAE
:100CD400010EB35D006E000EB459016E310E002496
:100CE400B76F000E0120B86F93C1B9F1000E93BF26
:100CF400FF0EBA6F3DEC02F0B7C1E1FFB8C1E2FFED
:100D040000C0E6FF08D03C51050A01E104D043527B
:100D140001E001D010D60101010EC06FBFEC00F05C
:060D24003B6B3C6B12006A
:100D2A00ACC1BEF1A9EC01F000C032F1ACC1BEF118
:100D3A00B6EC01F000C033F1AAC1BEF1A9EC01F092
:100D4A0000C035F1AAC1BEF1B6EC01F000C036F11F
:100D5A00A9C1BEF1A9EC01F000C038F1A9C1BEF1E8
:0A0D6A00B6EC01F000C039F11200F0
:100D7400010E0101C06FBFEC00F0010EB96F010E4E
:100D8400BA6F470EBB6F010EBC6FC3EC02F0010ECD
:100D9400B96F060EBA6F320EBB6F010EBC6FC3EC97
:100DA40002F0020EB96F010EBA6F210EBB6F010E75
:100DB400BC6FC3EC02F0A86B3C6B01013B6B80B0D1
:100DC40015D0020E0B6E040E0C6EBA0E0D6E0D2EA7
:100DD400FED70C2EFCD70B2EFAD7000080B006D01D
:100DE4003C2B3C51050802E2010E3C6F3C53D8B445
:100DF40093D180B211D0020E0B6E040E0C6EBA0E9B
:100E04000D6E0D2EFED70C2EFCD70B2EFAD700003C
:100E140080B202D0010E3B6F80B411D0020E0B6E73
:100E2400040E0C6EBA0E0D6E0D2EFED70C2EFCD7D2
:100E34000B2EFAD7000080B402D0FF0E3B6F3C5358
:100E4400D8B46AD13B53D8B467D15CD1ACC1B9F141
:100E5400000EACBFFF0EBA6F3DEC02F000C0ACF167
:100E64003B51002600C0ACF100C0B9F1000E00BE39
:100E7400FF0EBA6F6DEC02F000C0ACF1AA51010A8A
:100E840013E0AA51030A10E0AA51050A0DE0AA5181
:100E9400070A0AE0AA51080A07E0AA51100A04E066
:100EA400AA51120A01E012D0800E310A006E800E9F
:100EB400AC19005C02E2010EAC6F800EAC19006E3E
:100EC400800E010A005C02E2310EAC6FAA51040AE2
:100ED4000AE0AA51060A07E0AA51090A04E0AA5145
:100EE400110A01E012D0800E300A006E800EAC1997
:100EF400005C02E2010EAC6F800EAC19006E800E35
:100F0400010A005C02E2300EAC6FAA51020AD8A4B6
:100F140099D0A9C1B9F1000EA9BFFF0EBA6F3DEC7B
:100F240002F0640E046E000E056E3FEC01F008C082
:100F340000F009C001F0000E011802E1000E0018D3
:100F440041E1A9C1B9F1000E0101A9BFFF0EBA6FB9
:100F54003DEC02F0900E046E010E056E3FEC01F0C4
:100F640008C000F009C001F0000E011802E1000EF3
:100F7400001814E1800E290A006E800E0101AC19DC
:100F8400005C02E2010EAC6F800EAC19006E800EA4
:100F9400010A005C02E2290EAC6F13D00101800E3D
:100FA400280A006E800EAC19005C02E2010EAC6FE0
:100FB400800EAC19006E800E010A005C02E2280E5D
:100FC400AC6F40D00101A9C1B9F1000EA9BFFF0E59
:100FD400BA6F3DEC02F0040E046E000E056E3FEC99
:100FE40001F008C000F009C001F0000E011802E190
:100FF400000E001814E1800E290A006E800E010113
:10100400AC19005C02E2010EAC6F800EAC19006EEC
:10101400800E010A005C02E2290EAC6F13D00101BC
:10102400800E280A006E800EAC19005C02E2010EEC
:10103400AC6F800EAC19006E800E010A005C02E2F7
:10104400280EAC6F69D0AAC1B9F1000EAABFFF0E79
:10105400BA6F3DEC02F000C0AAF13B51002600C07B
:10106400AAF100C0B9F1000E00BEFF0EBA6F6DEC1C
:1010740002F000C0AAF1800E120A026E800E00185F
:10108400025C02E2010EAA6F800E000A006E800E5E
:10109400AA19005C02E3120EAA6FABC1B9F1000EEB
:1010A400ABBFFF0EBA6F6DEC02F000C0ABF134D0F1
:1010B400A9C1B9F1000EA9BFFF0EBA6F3DEC02F051
:1010C40000C0A9F13B51002600C0A9F100C0B9F14C
:1010D400000E00BEFF0EBA6F6DEC02F000C0A9F165
:1010E400800EFF0A026E800E0018025C02E3990E65
:1010F400A96F800EA919006E800E500A005CD8B04A
:10110400A96B0AD03C51030AD8B4A0D63C51020AB8
:101114009AE03C51010ACCE006DEA82B800E0A0AB4
:10112400006E800EA819005CD8A0A86B800EA819C8
:10113400006E800E050A005C1FE2010EB96F060EF8
:10114400BA6F320EBB6F010EBC6FC3EC02F0020E1D
:10115400B96F030EBA6F570EBB6F010EBC6FC3ECB1
:1011640002F0020EB96F0A0EBA6F500EBB6F010E79
:10117400BC6FC3EC02F045D03C51010A0BE1010EF7
:10118400B96F0C0EBA6F1E0EBB6F010EBC6FC3ECB1
:1011940002F037D03C51020A0BE1010EB96F090E7F
:1011A400BA6F550EBB6F000EBC6FC3EC02F029D0B2
:1011B4003C51030A0BE1010EB96F060EBA6F580ECB
:1011C400BB6F000EBC6FC3EC02F01BD03C51040A91
:1011D4000BE1020EB96F030EBA6F5B0EBB6F000E0C
:1011E400BC6FC3EC02F00DD03C51050A0AE1020EBB
:1011F400B96F0A0EBA6F4E0EBB6F000EBC6FC3EC14
:1012040002F0020E0B6E040E0C6EBA0E0D6E0D2E55
:10121400FED70C2EFCD70B2EFAD7000080B627D0B1
:10122400020E0B6E040E0C6EBA0E0D6E0D2EFED752
:101234000C2EFCD70B2EFAD7000080B618D03C51E8
:10124400040A14E1040EB96FACC1BAF1B6EC02F0B1
:10125400050E0101B96FAAC1BAF1B6EC02F0060E8F
:101264000101B96FA9C1BAF1B6EC02F004D043523E
:1012740001E001D0A2D5010E0101C06FBFEC00F066
:061284003B6B3C6B120005
:10128A00010E0101C06FBFEC00F0B1C1B3F1B2C1F0
:10129A00B4F119EC03F0A86B3C6B3B6B80B015D032
:1012AA00020E0B6E040E0C6EBA0E0D6E0D2EFED7CC
:1012BA000C2EFCD70B2EFAD7000080B006D03C2BA0
:1012CA003C51040802E2010E3C6F3C53D8B468D189
:1012DA0080B211D0020E0B6E040E0C6EBA0E0D6E99
:1012EA000D2EFED70C2EFCD70B2EFAD7000080B29B
:1012FA0002D0010E3B6F80B411D0020E0B6E040EA9
:10130A000C6EBA0E0D6E0D2EFED70C2EFCD70B2EC0
:10131A00FAD7000080B402D0FF0E3B6F3C53D8B41A
:10132A00E3D03B53D8B4E0D0CBD0010EB15D006E10
:10133A00000EB259016E3D0E0024026E010E01200C
:10134A00036E02C0E9FF03C0EAFFEECF01F00152CB
:10135A00010ED8A4000E006E02C0E1FF03C0E2FF36
:10136A0000C0E6FFBBD0010EB15D006E000EB2599F
:10137A00016E4D0E0024026E010E0120036E02C0A2
:10138A00E9FF03C0EAFF3B51EE24006E02C0E1FF11
:10139A0003C0E2FF00C0E6FF010EB15D006E000E61
:1013AA00B259016E4D0E0024E96E010E0120EA6E5B
:1013BA00800E130A006E800EEE18005C0DE2010E1C
:1013CA00B15D006E000EB259016E4D0E0024E16E41
:1013DA00010E0120E26EE66A010EB15D006E000E9A
:1013EA00B259016E4D0E0024E96E010E0120EA6E1B
:1013FA00800EEE18006E800E000A005C0EE2010EEE
:10140A00B15D006E000EB259016E4D0E0024E16E00
:10141A00010E0120E26E130EE66E60D0B1C1B9F181
:10142A00B2C1BAF16DEC02F000C0BEF1B6EC01F047
:10143A0000C047F0020EB36F000EB46F440EB56FD2
:10144A00000EB66F1AEC04F049D0010EB15D006EC1
:10145A00000EB259016E440E0024026E010E0120E4
:10146A00036E02C0E9FF03C0EAFF3B51EE24006E9F
:10147A0002C0E1FF03C0E2FF00C0E6FF010EB15D5A
:10148A00006E000EB259016E440E0024E96E010E80
:10149A000120EA6E800E030A006E800EEE18005CD0
:1014AA000EE2010EB15D006E000EB259016E440EDD
:1014BA000024E16E010E0120E26E010EE66E0ED0EE
:1014CA003C51010AD8B431D73C51030AD8B44BD79E
:1014DA003C51020AA3E03C51040AB7E0B1C1B3F19E
:1014EA00B2C1B4F119EC03F0A82B800E0A0A006EFF
:1014FA00800EA819005CD8A0A86B800EA819006EEF
:10150A00800E050A005C15E2010EB96F010EBA6F72
:10151A0040C1BBF141C1BCF1C3EC02F0020EB96F8C
:10152A00010EBA6F42C1BBF143C1BCF1C3EC02F078
:10153A0037D03C51010A0BE1010EB96F090EBA6F9F
:10154A004A0EBB6F000EBC6FC3EC02F029D03C51AF
:10155A00020A0BE1010EB96F0D0EBA6F710EBB6F65
:10156A00000EBC6FC3EC02F01BD03C51030A0BE126
:10157A00020EB96F080EBA6F760EBB6F000EBC6F03
:10158A00C3EC02F00DD03C51040A0AE1020EB96F15
:10159A00100EBA6F790EBB6F000EBC6FC3EC02F06F
:1015AA0080B610D0020E0B6E040E0C6EBA0E0D6EC3
:1015BA000D2EFED70C2EFCD70B2EFAD7000080B6C4
:1015CA0001D011D0435201E00ED0020E0B6E040E70
:1015DA000C6EBA0E0D6E0D2EFED70C2EFCD70B2EEE
:1015EA00FAD700005AD6010EC06FBFEC00F03B6B71
:1015FA003C6BA86B060E4025E16E000E4121E26E9F
:06160A00060EE66E120060
:101610001CEC01F0D00E0101BE6F0BEC01F0B1C16A
:10162000BEF10BEC01F0FFEC03F0D10E0101BE6F37
:101630000BEC01F00101B36B04EC04F000C0B2F15B
:0A1640003DEC01F0B2C100F0120011
:10164A00939693949398939A939C939E819681945C
:10165A00819E819C819A819880EC00F080EC00F058
:10166A0080EC00F0818A8188818690EC00F0819676
:10167A0080EC00F0818690EC00F0819680EC00F01E
:10168A00818690EC00F0819680EC00F0819881864A
:10169A0090EC00F0819680EC00F0818690EC00F0EE
:1016AA008196819A818E818690EC00F0819680ECF9
:1016BA0000F0819E8188818690EC00F08196819865
:1016CA00818690EC00F0819680EC00F0818690ECA7
:1016DA0000F081968188818690EC00F0819680ECFA
:1016EA0000F08198818690EC00F08196818E818C41
:1016FA00818A8188818690EC00F0819680EC00F0E6
:06170A000101A68112009E
:10171000949894968B988B9694889486C79EC79C31
:06172000380EC66E120037
:101726000900F5CFE6FF0006FBE10106F9E112002C
:101736000101B16B6ADF00C09DF1010E0101B16FBD
:1017460064DF00C0ABF1020E0101B16F5EDF00C0C5
:1017560094F1000E0101956F1F0E9415986F95C1B7
:1017660099F1000E9917200E9415926F030EB16F22
:101776004CDF00C0A7F1040E0101B16F46DF00C0C7
:10178600ACF1050E0101B16F40DF00C0AAF1060EF3
:101796000101B16F3ADF00C0A9F10101B96BBA6B63
:0A17A600E5EC01F095EC06F01200EE
:1017B000060E7E240101AD6F000E7F20AE6F43C088
:1017C000B9F1000E43BEFF0EBA6F6DEC02F000C01F
:1017D000BEF1B6EC01F0ADC1E1FFAEC1E2FF00C069
:1017E000E6FF020EB96F010EBA6F7EC0BBF17FC07B
:1017F000BCF1C3EC02F0A86B800EA819006E800E3D
:10180000050A005C0BE2020EB96F0A0EBA6F800E79
:10181000BB6F000EBC6FC3EC02F013D0800EA81992
:10182000006E800E0A0A005C0BE2020EB96F0A0E0F
:10183000BA6F880EBB6F000EBC6FC3EC02F001D014
:10184000A86B80B26ED1020E0B6E040E0C6EBA0E37
:101850000D6E0D2EFED70C2EFCD70B2EFAD70000E6
:1018600080B25FD1020EB96F010EBA6F970EBB6FD7
:10187000000EBC6FC3EC02F04304006E000E43BECA
:10188000FF0E016E000E015A4D0E0024E96E010E8E
:101890000120EA6EEECF00F0000E00BEFF0E016EDA
:1018A000580E046E020E056EBDEC01F000C0A8F0EB
:1018B00001C0A9F000C0AAF001C0ABF0800E000189
:1018C000AB19006E800E005C02E1010EAA5DD8A08B
:1018D00016D10A0E046E000E056EAAC000F0ABC051
:1018E00001F03FEC01F008C000F009C001F0005029
:1018F0000110D8A4B8D00A0E046E000E056EAAC05E
:1019000000F0ABC001F03FEC01F000C0AAF001C054
:10191000ABF095C0ADF196C0AEF13C0E046E000E7A
:10192000056E3FEC01F000C0B9F101C0BAF16DECF9
:1019300002F000C0BEF1A9EC01F0ADC1E1FFAEC103
:10194000E2FF00C0E6FF010E000195250101AD6F29
:10195000000E000196210101AE6F3C0E046E000ED8
:10196000056EAAC000F0ABC001F03FEC01F000C072
:10197000B9F101C0BAF16DEC02F000C0BEF1B6ECF5
:1019800001F0ADC1E1FFAEC1E2FF00C0E6FF020E13
:10199000B96F0C0EBA6F95C0BBF196C0BCF1C3EC29
:1019A00002F095C0ADF196C0AEF13C0E046E000E93
:1019B000056EAAC000F0ABC001F03FEC01F008C01A
:1019C00000F009C001F000C0B9F101C0BAF16DEC3E
:1019D00002F000C0BEF1A9EC01F0ADC1E1FFAEC163
:1019E000E2FF00C0E6FF010E000195250101AD6F89
:1019F000000E000196210101AE6F3C0E046E000E38
:101A0000056EAAC000F0ABC001F03FEC01F008C0C9
:101A100000F009C001F000C0B9F101C0BAF16DECED
:101A200002F000C0BEF1B6EC01F0ADC1E1FFAEC105
:101A3000E2FF00C0E6FF020EB96F0F0EBA6F95C04D
:101A4000BBF196C0BCF1C3EC02F0AAC000F0ABC081
:101A500001F00A0E046E000E056EBDEC01F000C030
:101A6000AAF001C0ABF080B216D0020E0B6E040ECD
:101A70000C6EBA0E0D6E0D2EFED70C2EFCD70B2E53
:101A8000FAD7000080B207D0010E0001A825AA6F86
:101A9000000EA921AB6F80B41FD0020E0B6E040E96
:101AA0000C6EBA0E0D6E0D2EFED70C2EFCD70B2E23
:101AB000FAD7000080B410D00001010E906F000E24
:101AC000916F436AAA6BAB6BA86BA96B010E010106
:101AD000C06FBFEC00F056D0010E0001AA5F000EEF
:101AE000AB5B020E0B6E040E0C6EBA0E0D6E0D2E5D
:101AF000FED70C2EFCD70B2EFAD70000DFD6920EA5
:101B0000956F000E966F020E0101B96F010EBA6F4C
:101B10007EC0BBF17FC0BCF1C3EC02F00001AA6B38
:101B2000AB6B80B41FD0020E0B6E040E0C6EBA0E9F
:101B30000D6E0D2EFED70C2EFCD70B2EFAD7000003
:101B400080B410D00001010E906F000E916F436AB7
:101B5000AA6BAB6BA86BA96B010E0101C06FBFEC48
:101B600000F010D00101A82B020E0B6E040E0C6EBB
:101B7000BA0E0D6E0D2EFED70C2EFCD70B2EFAD7FB
:061B800000003AD612003D
:101B860061DD010EC06FBFEC00F00C0EC06FBFEC44
:101B960000F0010EB96F010EBA6FF70EBB6F000EA3
:101BA600BC6FC3EC02F0020EB96F010EBA6FDA0E0B
:101BB600BB6F000EBC6FC3EC02F0A86B3C6B3B6BBB
:101BC60080B015D0020E0B6E040E0C6EBA0E0D6EA2
:101BD6000D2EFED70C2EFCD70B2EFAD7000080B0A8
:101BE60006D03C2B3C51050802E2010E3C6F3C53EB
:101BF600D8B4C5D080B211D0020E0B6E040E0C6E96
:101C0600BA0E0D6E0D2EFED70C2EFCD70B2EFAD764
:101C1600000080B202D0010E3B6F80B411D0020EDC
:101C26000B6E040E0C6EBA0E0D6E0D2EFED70C2E1C
:101C3600FCD70B2EFAD7000080B402D0FF0E3B6F04
:101C46003C5333E03B5331E021D0010EB16F000E1F
:101C5600B26F45EC09F029D0020EB16F000EB26FDB
:101C660045EC09F022D0030EB16F000EB26F45ECC1
:101C760009F01BD0B36BB46BB20EB56F000EB66F26
:101C86001AEC04F012D0BAEC06F00FD03C51010A5F
:101C9600DCE03C51020AE0E03C51030AE4E03C513E
:101CA600040AE8E03C51050AEEE0A82B800E0A0A79
:101CB600006E800EA819005CD8A0A86B800EA8192B
:101CC600006E800E050A005C15E2010EB96F010E6A
:101CD600BA6FB80EBB6F000EBC6FC3EC02F0020EFB
:101CE600B96F010EBA6FC90EBB6F000EBC6FC3ECA5
:101CF60002F045D03C51010A0BE1010EB96F0C0E02
:101D0600BA6F180EBB6F010EBC6FC3EC02F037D072
:101D16003C51020A0BE1010EB96F0E0EBA6F1A0E94
:101D2600BB6F010EBC6FC3EC02F029D03C51030A15
:101D36000BE1010EB96F100EBA6F1C0EBB6F010ED0
:101D4600BC6FC3EC02F01BD03C51040A0BE1020E3F
:101D5600B96F060EBA6F130EBB6F010EBC6FC3ECE4
:101D660002F00DD03C51050A0AE1020EB96F0D0EC4
:101D7600BA6F080EBB6F010EBC6FC3EC02F080B6E3
:101D860010D0020E0B6E040E0C6EBA0E0D6E0D2EDA
:101D9600FED70C2EFCD70B2EFAD7000080B601D04A
:101DA60011D0020E0B6E040E0C6EBA0E0D6E0D2EB9
:101DB600FED70C2EFCD70B2EFAD70000435201E0BB
:101DC60001D0FDD6010EC06FBFEC00F03B6B3C6B43
:041DD600A86B1200E4
:101DDA0040EC10F0140EC86E96DC070EB46E060EB8
:101DEA00C16EFF0E926E806A956A836A29DC010EC3
:101DFA00C06FBFEC00F00C0EC06FBFEC00F0840E99
:101E0A00D56E0B0ED76EDC0ED66EF28EF28A8EDC93
:101E1A00010EB96F010EBA6F0D0EBB6F010EBC6FCA
:101E2A00C3EC02F0020EB96F010EBA6FAC0EBB6FB3
:101E3A00000EBC6FC3EC02F079DC94C1B9F195C114
:101E4A00BAF13DEC02F000C0A1F101C0A2F1ABC1B0
:101E5A00B9F1000EABBFFF0EBA6F3DEC02F000C045
:101E6A00A3F19DC1B9F1000E9DBFFF0EBA6F3DEC03
:101E7A0002F000C0A4F101C0A5F192C19FF1000EC9
:101E8A0092BFFF0EA06F010EB96F060EBA6F340E25
:101E9A00BB6F000EBC6FC3EC02F0020EB96F060EE8
:101EAA00BA6F320EBB6F010EBC6FC3EC02F03B6B14
:101EBA00435202E078DC436A80B610D0020E0B6E01
:101ECA00040E0C6EBA0E0D6E0D2EFED70C2EFCD71C
:101EDA000B2EFAD7000080B601D050DE020E0B6E30
:101EEA00040E0C6EBA0E0D6E0D2EFED70C2EFCD7FC
:0A1EFA000B2EFAD700008CD7FFD79B
:1020800010EE16F07C0E006E020E016E040EF66E5F
:0E2090001F0EF76E000EF86E93EC0BF01200B0
:020006005F0099
:031F0400000000DA
:061F0700000000000000D4
:071F0D0043616E63656C0087
:031F14005F5F000C
:031F17005F5F0009
:051F1A00536176650033
:031F1F00000000BF
:0C1F220030303A30303A303020504D0062
:031F2E0030300050
:011F310000AF
:061F3200414C2D313A0084
:041F38005F5F5F0088
:071F3C005F5F5F5F5F5F0064
:031F43005F5F00DD
:031F46005F5F00DA
:051F49005F5F5F5F0017
:101F4E00205B536176655D205B43616E63656C5DFE
:011F5E000082
:051F5F005F5F5F5F0001
:031F64005F5F00BC
:021F67005F0019
:031F69005F5F00B7
:021F6C007E01F4
:081F6E0020202020202020008B
:081F760052494E47494E470055
:021F7E00000061
:031F8000303000FE
:021F83008F01CC
:101F8500534E4F4F5A494E47202D2030303A30306E
:011F9500004B
:021F9600000049
:021F9800000047
:061F9A00446174653A0089
:061FA00054696D653A0072
:101FA6004564697420416C61726D3A317C327C33D0
:011FB600002A
:101FB7005365743A2054696D65207C2044617465CB
:011FC7000019
:101FC8005365743A2054696D65207C2044617465BA
:011FD8000008
:051FD9005F5F5F5F0087
:071FDE005F5F5F5F5F5F00C2
:101FE5004564697420416C61726D3A317C327C3391
:011FF50000EB
:051FF6005F5F5F5F006A
:061FFB0054696D653A0017
:052001005F5F5F5F005E
:022006005F0079
:022008005F0077
:02200A005F0075
:03200C005F5F0013
:10200F00205B536176655D205B43616E63656C5D3C
:01201F0000C0
:0920200030302D30302D3030003D
:0120290000B6
:01202A0000B5
:03202B00010101AF
:04202E006D015C01E3
:03203200030201A5
:06203500446174653A00ED
:03203B000F02058C
:07203E0043616E63656C0055
:05204500536176650007
:10204A00536E6F6F7A653A5F5F7C546F6E653A5F65
:01205A000085
:10205B00416C61726D2D313A4F5F207C54696D6517
:01206B000074
:10206C00416C61726D20313A2052494E47494E47BE
:01207C000063
:03207D0030300000
:020000040030CA
:0D000100021F1EFF8381FF0FC00FE00F40A4
:00000001FF
